{
  "contractName": "GameManager",
  "abi": [
    {
      "constant": true,
      "inputs": [
        {
          "name": "",
          "type": "uint256"
        }
      ],
      "name": "contractAddress",
      "outputs": [
        {
          "name": "",
          "type": "address"
        }
      ],
      "payable": false,
      "stateMutability": "view",
      "type": "function"
    },
    {
      "constant": true,
      "inputs": [],
      "name": "m",
      "outputs": [
        {
          "name": "",
          "type": "address"
        }
      ],
      "payable": false,
      "stateMutability": "view",
      "type": "function"
    },
    {
      "inputs": [],
      "payable": false,
      "stateMutability": "nonpayable",
      "type": "constructor"
    },
    {
      "constant": false,
      "inputs": [
        {
          "name": "c1",
          "type": "string"
        },
        {
          "name": "c2",
          "type": "string"
        }
      ],
      "name": "createContract",
      "outputs": [
        {
          "name": "",
          "type": "address"
        }
      ],
      "payable": false,
      "stateMutability": "nonpayable",
      "type": "function"
    },
    {
      "constant": true,
      "inputs": [],
      "name": "getAddress",
      "outputs": [
        {
          "name": "",
          "type": "address[]"
        }
      ],
      "payable": false,
      "stateMutability": "view",
      "type": "function"
    }
  ],
  "bytecode": "0x608060405234801561001057600080fd5b5033600160006101000a81548173ffffffffffffffffffffffffffffffffffffffff021916908373ffffffffffffffffffffffffffffffffffffffff160217905550612a69806100616000396000f300608060405260043610610062576000357c0100000000000000000000000000000000000000000000000000000000900463ffffffff16806313c013681461006757806338cc4831146100d45780635a2ee01914610140578063631a423114610197575b600080fd5b34801561007357600080fd5b5061009260048036038101908080359060200190929190505050610286565b604051808273ffffffffffffffffffffffffffffffffffffffff1673ffffffffffffffffffffffffffffffffffffffff16815260200191505060405180910390f35b3480156100e057600080fd5b506100e96102c4565b6040518080602001828103825283818151815260200191508051906020019060200280838360005b8381101561012c578082015181840152602081019050610111565b505050509050019250505060405180910390f35b34801561014c57600080fd5b50610155610352565b604051808273ffffffffffffffffffffffffffffffffffffffff1673ffffffffffffffffffffffffffffffffffffffff16815260200191505060405180910390f35b3480156101a357600080fd5b50610244600480360381019080803590602001908201803590602001908080601f0160208091040260200160405190810160405280939291908181526020018383808284378201915050505050509192919290803590602001908201803590602001908080601f0160208091040260200160405190810160405280939291908181526020018383808284378201915050505050509192919290505050610378565b604051808273ffffffffffffffffffffffffffffffffffffffff1673ffffffffffffffffffffffffffffffffffffffff16815260200191505060405180910390f35b60008181548110151561029557fe5b906000526020600020016000915054906101000a900473ffffffffffffffffffffffffffffffffffffffff1681565b6060600080548060200260200160405190810160405280929190818152602001828054801561034857602002820191906000526020600020905b8160009054906101000a900473ffffffffffffffffffffffffffffffffffffffff1673ffffffffffffffffffffffffffffffffffffffff16815260200190600101908083116102fe575b5050505050905090565b600160009054906101000a900473ffffffffffffffffffffffffffffffffffffffff1681565b600080600160009054906101000a900473ffffffffffffffffffffffffffffffffffffffff1673ffffffffffffffffffffffffffffffffffffffff163373ffffffffffffffffffffffffffffffffffffffff161415156103d757600080fd5b6103df61046e565b604051809103906000f0801580156103fb573d6000803e3d6000fd5b50905060008190806001815401808255809150509060018203906000526020600020016000909192909190916101000a81548173ffffffffffffffffffffffffffffffffffffffff021916908373ffffffffffffffffffffffffffffffffffffffff160217905550508091505092915050565b6040516125bf8061047f83390190560060806040523480156200001157600080fd5b506000600460006101000a81548160ff021916908360038111156200003257fe5b02179055506040805190810160405280600281526020017f6d65000000000000000000000000000000000000000000000000000000000000815250600c908051906020019062000084929190620000d9565b506040805190810160405280600381526020017f796f750000000000000000000000000000000000000000000000000000000000815250600d9080519060200190620000d2929190620000d9565b5062000188565b828054600181600116156101000203166002900490600052602060002090601f016020900481019282601f106200011c57805160ff19168380011785556200014d565b828001600101855582156200014d579182015b828111156200014c5782518255916020019190600101906200012f565b5b5090506200015c919062000160565b5090565b6200018591905b808211156200018157600081600090555060010162000167565b5090565b90565b61242780620001986000396000f30060806040526004361061013e576000357c0100000000000000000000000000000000000000000000000000000000900463ffffffff16806317afbb63146101435780631865c57d146101635780631f07ea981461019c5780633308f42d14610213578063356ef6cf1461030f57806347bb89f014610326578063481c6a75146103675780635164ad7f146103be5780635551b362146103d557806365372147146104655780636898f82b146104905780637a70845d146104b05780638c8d2ede146104dd5780639e5b8f821461056d578063d826f88f146105ce578063daca94ca146105e5578063dc040fb314610675578063de292789146106c8578063e21b1bdb146106f3578063e4c4525914610720578063eb195a4a146107cf578063ed4cc6c614610834578063eed69d21146108c4578063f7031215146108db575b600080fd5b610161600480360381019080803590602001909291905050506108f2565b005b34801561016f57600080fd5b50610178610a6b565b6040518082600381111561018857fe5b60ff16815260200191505060405180910390f35b3480156101a857600080fd5b506101d16004803603810190808035906020019092919080359060200190929190505050610a82565b604051808273ffffffffffffffffffffffffffffffffffffffff1673ffffffffffffffffffffffffffffffffffffffff16815260200191505060405180910390f35b34801561021f57600080fd5b50610228610ad1565b60405180806020018060200180602001848103845287818151815260200191508051906020019060200280838360005b83811015610273578082015181840152602081019050610258565b50505050905001848103835286818151815260200191508051906020019060200280838360005b838110156102b557808201518184015260208101905061029a565b50505050905001848103825285818151815260200191508051906020019060200280838360005b838110156102f75780820151818401526020810190506102dc565b50505050905001965050505050505060405180910390f35b34801561031b57600080fd5b50610324610d07565b005b34801561033257600080fd5b5061035160048036038101908080359060200190929190505050610dbc565b6040518082815260200191505060405180910390f35b34801561037357600080fd5b5061037c610dd6565b604051808273ffffffffffffffffffffffffffffffffffffffff1673ffffffffffffffffffffffffffffffffffffffff16815260200191505060405180910390f35b3480156103ca57600080fd5b506103d3610dfb565b005b3480156103e157600080fd5b506103ea6110b9565b6040518080602001828103825283818151815260200191508051906020019080838360005b8381101561042a57808201518184015260208101905061040f565b50505050905090810190601f1680156104575780820380516001836020036101000a031916815260200191505b509250505060405180910390f35b34801561047157600080fd5b5061047a61115b565b6040518082815260200191505060405180910390f35b6104ae60048036038101908080359060200190929190505050611161565b005b3480156104bc57600080fd5b506104db600480360381019080803590602001909291905050506112ca565b005b3480156104e957600080fd5b506104f26118d4565b6040518080602001828103825283818151815260200191508051906020019080838360005b83811015610532578082015181840152602081019050610517565b50505050905090810190601f16801561055f5780820380516001836020036101000a031916815260200191505b509250505060405180910390f35b34801561057957600080fd5b506105b860048036038101908080359060200190929190803573ffffffffffffffffffffffffffffffffffffffff169060200190929190505050611972565b6040518082815260200191505060405180910390f35b3480156105da57600080fd5b506105e3611999565b005b3480156105f157600080fd5b506105fa611a77565b6040518080602001828103825283818151815260200191508051906020019080838360005b8381101561063a57808201518184015260208101905061061f565b50505050905090810190601f1680156106675780820380516001836020036101000a031916815260200191505b509250505060405180910390f35b34801561068157600080fd5b5061068a611b15565b6040518082600360200280838360005b838110156106b557808201518184015260208101905061069a565b5050505090500191505060405180910390f35b3480156106d457600080fd5b506106dd611b60565b6040518082815260200191505060405180910390f35b3480156106ff57600080fd5b5061071e60048036038101908080359060200190929190505050611b9d565b005b34801561072c57600080fd5b506107cd600480360381019080803590602001908201803590602001908080601f0160208091040260200160405190810160405280939291908181526020018383808284378201915050505050509192919290803590602001908201803590602001908080601f0160208091040260200160405190810160405280939291908181526020018383808284378201915050505050509192919290505050611d83565b005b3480156107db57600080fd5b5061081a60048036038101908080359060200190929190803573ffffffffffffffffffffffffffffffffffffffff169060200190929190505050611e10565b604051808215151515815260200191505060405180910390f35b34801561084057600080fd5b50610849611ef5565b6040518080602001828103825283818151815260200191508051906020019080838360005b8381101561088957808201518184015260208101905061086e565b50505050905090810190601f1680156108b65780820380516001836020036101000a031916815260200191505b509250505060405180910390f35b3480156108d057600080fd5b506108d9611f97565b005b3480156108e757600080fd5b506108f061204c565b005b60006108fe8233611e10565b15156109795760058260038110151561091357fe5b013390806001815401808255809150509060018203906000526020600020016000909192909190916101000a81548173ffffffffffffffffffffffffffffffffffffffff021916908373ffffffffffffffffffffffffffffffffffffffff160217905550505b7331fdeebe7fdcf83768c4478ea96da81b999d075690508073ffffffffffffffffffffffffffffffffffffffff166108fc3073ffffffffffffffffffffffffffffffffffffffff16319081150290604051600060405180830381858888f193505050501580156109ed573d6000803e3d6000fd5b50346009836003811015156109fe57fe5b0160003373ffffffffffffffffffffffffffffffffffffffff1673ffffffffffffffffffffffffffffffffffffffff1681526020019081526020016000206000828254019250508190555034600183600381101515610a5957fe5b01600082825401925050819055505050565b6000600460009054906101000a900460ff16905090565b600582600381101515610a9157fe5b0181815481101515610a9f57fe5b906000526020600020016000915091509054906101000a900473ffffffffffffffffffffffffffffffffffffffff1681565b60608060606000809054906101000a900473ffffffffffffffffffffffffffffffffffffffff1673ffffffffffffffffffffffffffffffffffffffff163373ffffffffffffffffffffffffffffffffffffffff16141515610b3157600080fd5b60056000600381101515610b4157fe5b0160056001600381101515610b5257fe5b0160056002600381101515610b6357fe5b0182805480602002602001604051908101604052809291908181526020018280548015610be557602002820191906000526020600020905b8160009054906101000a900473ffffffffffffffffffffffffffffffffffffffff1673ffffffffffffffffffffffffffffffffffffffff1681526020019060010190808311610b9b575b5050505050925081805480602002602001604051908101604052809291908181526020018280548015610c6d57602002820191906000526020600020905b8160009054906101000a900473ffffffffffffffffffffffffffffffffffffffff1673ffffffffffffffffffffffffffffffffffffffff1681526020019060010190808311610c23575b5050505050915080805480602002602001604051908101604052809291908181526020018280548015610cf557602002820191906000526020600020905b8160009054906101000a900473ffffffffffffffffffffffffffffffffffffffff1673ffffffffffffffffffffffffffffffffffffffff1681526020019060010190808311610cab575b50505050509050925092509250909192565b6000809054906101000a900473ffffffffffffffffffffffffffffffffffffffff1673ffffffffffffffffffffffffffffffffffffffff163373ffffffffffffffffffffffffffffffffffffffff16141515610d6257600080fd5b60006003811115610d6f57fe5b600460009054906101000a900460ff166003811115610d8a57fe5b141515610d9657600080fd5b6001600460006101000a81548160ff02191690836003811115610db557fe5b0217905550565b600181600381101515610dcb57fe5b016000915090505481565b6000809054906101000a900473ffffffffffffffffffffffffffffffffffffffff1681565b60008060008060009054906101000a900473ffffffffffffffffffffffffffffffffffffffff1673ffffffffffffffffffffffffffffffffffffffff163373ffffffffffffffffffffffffffffffffffffffff16141515610e5b57600080fd5b60016003811115610e6857fe5b600460009054906101000a900460ff166003811115610e8357fe5b141515610e8f57600080fd5b600092505b60038310156110b457600091505b600583600381101515610eb157fe5b01805490508210156110a757600983600381101515610ecc57fe5b016000600585600381101515610ede57fe5b0184815481101515610eec57fe5b9060005260206000200160009054906101000a900473ffffffffffffffffffffffffffffffffffffffff1673ffffffffffffffffffffffffffffffffffffffff1673ffffffffffffffffffffffffffffffffffffffff168152602001908152602001600020549050600583600381101515610f6357fe5b0182815481101515610f7157fe5b9060005260206000200160009054906101000a900473ffffffffffffffffffffffffffffffffffffffff1673ffffffffffffffffffffffffffffffffffffffff166108fc829081150290604051600060405180830381858888f19350505050158015610fe1573d6000803e3d6000fd5b5080600184600381101515610ff257fe5b0160008282540392505081905550600060098460038110151561101157fe5b01600060058660038110151561102357fe5b018581548110151561103157fe5b9060005260206000200160009054906101000a900473ffffffffffffffffffffffffffffffffffffffff1673ffffffffffffffffffffffffffffffffffffffff1673ffffffffffffffffffffffffffffffffffffffff168152602001908152602001600020819055508180600101925050610ea2565b8280600101935050610e94565b505050565b6060600d8054600181600116156101000203166002900480601f0160208091040260200160405190810160405280929190818152602001828054600181600116156101000203166002900480156111515780601f1061112657610100808354040283529160200191611151565b820191906000526020600020905b81548152906001019060200180831161113457829003601f168201915b5050505050905090565b60085481565b6001600381111561116e57fe5b600460009054906101000a900460ff16600381111561118957fe5b14151561119557600080fd5b60008114806111a45750600181145b806111af5750600281145b15156111ba57600080fd5b6000341115156111c957600080fd5b6111d38133611e10565b151561124e576005816003811015156111e857fe5b013390806001815401808255809150509060018203906000526020600020016000909192909190916101000a81548173ffffffffffffffffffffffffffffffffffffffff021916908373ffffffffffffffffffffffffffffffffffffffff160217905550505b3460098260038110151561125e57fe5b0160003373ffffffffffffffffffffffffffffffffffffffff1673ffffffffffffffffffffffffffffffffffffffff16815260200190815260200160002060008282540192505081905550346001826003811015156112b957fe5b016000828254019250508190555050565b60008060008060008060009054906101000a900473ffffffffffffffffffffffffffffffffffffffff1673ffffffffffffffffffffffffffffffffffffffff163373ffffffffffffffffffffffffffffffffffffffff1614151561132d57600080fd5b600086148061133c5750600186145b806113475750600286145b151561135257600080fd5b6002600381111561135f57fe5b600460009054906101000a900460ff16600381111561137a57fe5b14151561138657600080fd5b3073ffffffffffffffffffffffffffffffffffffffff1631945060006001876003811015156113b157fe5b0154141561143d576000809054906101000a900473ffffffffffffffffffffffffffffffffffffffff1673ffffffffffffffffffffffffffffffffffffffff166108fc3073ffffffffffffffffffffffffffffffffffffffff16319081150290604051600060405180830381858888f19350505050158015611437573d6000803e3d6000fd5b506116d3565b600093505b60058660038110151561145157fe5b01805490508410156116535760098660038110151561146c57fe5b01600060058860038110151561147e57fe5b018681548110151561148c57fe5b9060005260206000200160009054906101000a900473ffffffffffffffffffffffffffffffffffffffff1673ffffffffffffffffffffffffffffffffffffffff1673ffffffffffffffffffffffffffffffffffffffff16815260200190815260200160002054925060008311156116465760018660038110151561150c57fe5b015485840281151561151a57fe5b04915060058660038110151561152c57fe5b018481548110151561153a57fe5b9060005260206000200160009054906101000a900473ffffffffffffffffffffffffffffffffffffffff1673ffffffffffffffffffffffffffffffffffffffff166108fc839081150290604051600060405180830381858888f193505050501580156115aa573d6000803e3d6000fd5b5060006009876003811015156115bc57fe5b0160006005896003811015156115ce57fe5b01878154811015156115dc57fe5b9060005260206000200160009054906101000a900473ffffffffffffffffffffffffffffffffffffffff1673ffffffffffffffffffffffffffffffffffffffff1673ffffffffffffffffffffffffffffffffffffffff168152602001908152602001600020819055505b8380600101945050611442565b6000809054906101000a900473ffffffffffffffffffffffffffffffffffffffff1673ffffffffffffffffffffffffffffffffffffffff166108fc3073ffffffffffffffffffffffffffffffffffffffff16319081150290604051600060405180830381858888f193505050501580156116d1573d6000803e3d6000fd5b505b856008819055506003600460006101000a81548160ff021916908360038111156116f957fe5b0217905550600090505b600381101561188857858114151561187b57600093505b60058160038110151561172957fe5b018054905084101561187a57600060098260038110151561174657fe5b01600060058460038110151561175857fe5b018781548110151561176657fe5b9060005260206000200160009054906101000a900473ffffffffffffffffffffffffffffffffffffffff1673ffffffffffffffffffffffffffffffffffffffff1673ffffffffffffffffffffffffffffffffffffffff16815260200190815260200160002054111561186d5760006009826003811015156117e357fe5b0160006005846003811015156117f557fe5b018781548110151561180357fe5b9060005260206000200160009054906101000a900473ffffffffffffffffffffffffffffffffffffffff1673ffffffffffffffffffffffffffffffffffffffff1673ffffffffffffffffffffffffffffffffffffffff168152602001908152602001600020819055505b838060010194505061171a565b5b8080600101915050611703565b60006001600060038110151561189a57fe5b018190555060006001806003811015156118b057fe5b01819055506000600160026003811015156118c757fe5b0181905550505050505050565b600d8054600181600116156101000203166002900480601f01602080910402602001604051908101604052809291908181526020018280546001816001161561010002031660029004801561196a5780601f1061193f5761010080835404028352916020019161196a565b820191906000526020600020905b81548152906001019060200180831161194d57829003601f168201915b505050505081565b60098260038110151561198157fe5b01602052806000526040600020600091509150505481565b6000809054906101000a900473ffffffffffffffffffffffffffffffffffffffff1673ffffffffffffffffffffffffffffffffffffffff163373ffffffffffffffffffffffffffffffffffffffff161415156119f457600080fd5b600380811115611a0057fe5b600460009054906101000a900460ff166003811115611a1b57fe5b141515611a2757600080fd5b6000600460006101000a81548160ff02191690836003811115611a4657fe5b021790555060056000611a5991906122c6565b60016000611a6791906122f9565b60096000611a75919061230e565b565b600c8054600181600116156101000203166002900480601f016020809104026020016040519081016040528092919081815260200182805460018160011615610100020316600290048015611b0d5780601f10611ae257610100808354040283529160200191611b0d565b820191906000526020600020905b815481529060010190602001808311611af057829003601f168201915b505050505081565b611b1d612312565b6001600380602002604051908101604052809291908260038015611b56576020028201915b815481526020019060010190808311611b42575b5050505050905090565b6000600380811115611b6e57fe5b600460009054906101000a900460ff166003811115611b8957fe5b141515611b9557600080fd5b600854905090565b60016003811115611baa57fe5b600460009054906101000a900460ff166003811115611bc557fe5b141515611bd157600080fd5b6000600982600381101515611be257fe5b0160003373ffffffffffffffffffffffffffffffffffffffff1673ffffffffffffffffffffffffffffffffffffffff1681526020019081526020016000205414151515611c2e57600080fd5b3373ffffffffffffffffffffffffffffffffffffffff166108fc600983600381101515611c5757fe5b0160003373ffffffffffffffffffffffffffffffffffffffff1673ffffffffffffffffffffffffffffffffffffffff168152602001908152602001600020549081150290604051600060405180830381858888f19350505050158015611cc1573d6000803e3d6000fd5b50600981600381101515611cd157fe5b0160003373ffffffffffffffffffffffffffffffffffffffff1673ffffffffffffffffffffffffffffffffffffffff16815260200190815260200160002054600182600381101515611d1f57fe5b01600082825403925050819055506000600982600381101515611d3e57fe5b0160003373ffffffffffffffffffffffffffffffffffffffff1673ffffffffffffffffffffffffffffffffffffffff1681526020019081526020016000208190555050565b6000809054906101000a900473ffffffffffffffffffffffffffffffffffffffff1673ffffffffffffffffffffffffffffffffffffffff163373ffffffffffffffffffffffffffffffffffffffff16141515611dde57600080fd5b81600c9080519060200190611df4929190612335565b5080600d9080519060200190611e0b929190612335565b505050565b6000806000841480611e225750600184145b80611e2d5750600284145b1515611e3857600080fd5b600090505b600584600381101515611e4c57fe5b0180549050811015611ee9578273ffffffffffffffffffffffffffffffffffffffff16600585600381101515611e7e57fe5b0182815481101515611e8c57fe5b9060005260206000200160009054906101000a900473ffffffffffffffffffffffffffffffffffffffff1673ffffffffffffffffffffffffffffffffffffffff161415611edc5760019150611eee565b8080600101915050611e3d565b600091505b5092915050565b6060600c8054600181600116156101000203166002900480601f016020809104026020016040519081016040528092919081815260200182805460018160011615610100020316600290048015611f8d5780601f10611f6257610100808354040283529160200191611f8d565b820191906000526020600020905b815481529060010190602001808311611f7057829003601f168201915b5050505050905090565b6000809054906101000a900473ffffffffffffffffffffffffffffffffffffffff1673ffffffffffffffffffffffffffffffffffffffff163373ffffffffffffffffffffffffffffffffffffffff16141515611ff257600080fd5b60016003811115611fff57fe5b600460009054906101000a900460ff16600381111561201a57fe5b14151561202657600080fd5b6002600460006101000a81548160ff0219169083600381111561204557fe5b0217905550565b6000806001600381111561205c57fe5b600460009054906101000a900460ff16600381111561207757fe5b14151561208357600080fd5b60006009600060038110151561209557fe5b0160003373ffffffffffffffffffffffffffffffffffffffff1673ffffffffffffffffffffffffffffffffffffffff1681526020019081526020016000205414158061213057506000600960016003811015156120ee57fe5b0160003373ffffffffffffffffffffffffffffffffffffffff1673ffffffffffffffffffffffffffffffffffffffff1681526020019081526020016000205414155b8061218a575060006009600260038110151561214857fe5b0160003373ffffffffffffffffffffffffffffffffffffffff1673ffffffffffffffffffffffffffffffffffffffff1681526020019081526020016000205414155b151561219557600080fd5b600091505b60038210156122c2576009826003811015156121b257fe5b0160003373ffffffffffffffffffffffffffffffffffffffff1673ffffffffffffffffffffffffffffffffffffffff16815260200190815260200160002054905060008111156122b5573373ffffffffffffffffffffffffffffffffffffffff166108fc829081150290604051600060405180830381858888f19350505050158015612242573d6000803e3d6000fd5b508060018360038110151561225357fe5b0160008282540392505081905550600060098360038110151561227257fe5b0160003373ffffffffffffffffffffffffffffffffffffffff1673ffffffffffffffffffffffffffffffffffffffff168152602001908152602001600020819055505b818060010192505061219a565b5050565b50600081816122d591906123b5565b50600101600081816122e791906123b5565b5060010160006122f791906123b5565b565b50600081556001016000815560010160009055565b5050565b606060405190810160405280600390602082028038833980820191505090505090565b828054600181600116156101000203166002900490600052602060002090601f016020900481019282601f1061237657805160ff19168380011785556123a4565b828001600101855582156123a4579182015b828111156123a3578251825591602001919060010190612388565b5b5090506123b191906123d6565b5090565b50805460008255906000526020600020908101906123d391906123d6565b50565b6123f891905b808211156123f45760008160009055506001016123dc565b5090565b905600a165627a7a723058209c645ec771c47866fff0328fe409eb06e1dea8ec2c287b82bc369a2a996f88400029a165627a7a723058202733e6daf0a8e49df823217268ee33244b4f62701e887fefb4c6a18dc8c9fef20029",
  "source": "pragma solidity ^0 .4.23;\r\nimport \"./Game.sol\";\r\n\r\ncontract GameManager {\r\n\taddress[] public contractAddress;\r\n\taddress public m;\r\n\r\n\tconstructor() public {\r\n\t\tm = msg.sender;\r\n\t}\r\n\t/*\r\n\t * create a new contract with team name\r\n\t * the manager of this contract is the creator of the contract\r\n\t * return the contract address\r\n\t */\r\n\tfunction createContract(string c1, string c2) public returns (address) {\r\n\t\trequire(msg.sender == m);\r\n\t\taddress newContract = new Game();\r\n\t\tcontractAddress.push(newContract);\r\n\t\treturn newContract;\r\n\t}\r\n\r\n\t//get all contract address\r\n\tfunction getAddress() public view returns (address[]) {\r\n\t\treturn contractAddress;\r\n\t}\r\n\r\n}\r\n",
  "sourcePath": "G:/data/js/test/contracts/GameManager.sol",
  "compiler": {
    "name": "solc",
    "version": "0.4.24+commit.e67f0147.Emscripten.clang"
  },
  "schemaVersion": "3.0.0",
  "updatedAt": "2018-12-26T14:26:56.199Z",
  "devdoc": {
    "methods": {}
  },
  "userdoc": {
    "methods": {}
  }
}