{
  "contractName": "Game",
  "abi": [
    {
      "constant": true,
      "inputs": [
        {
          "name": "",
          "type": "uint256"
        },
        {
          "name": "",
          "type": "uint256"
        }
      ],
      "name": "player",
      "outputs": [
        {
          "name": "",
          "type": "address"
        }
      ],
      "payable": false,
      "stateMutability": "view",
      "type": "function",
      "signature": "0x1f07ea98"
    },
    {
      "constant": true,
      "inputs": [
        {
          "name": "",
          "type": "uint256"
        }
      ],
      "name": "balance",
      "outputs": [
        {
          "name": "",
          "type": "uint256"
        }
      ],
      "payable": false,
      "stateMutability": "view",
      "type": "function",
      "signature": "0x47bb89f0"
    },
    {
      "constant": true,
      "inputs": [],
      "name": "manager",
      "outputs": [
        {
          "name": "",
          "type": "address"
        }
      ],
      "payable": false,
      "stateMutability": "view",
      "type": "function",
      "signature": "0x481c6a75"
    },
    {
      "constant": true,
      "inputs": [],
      "name": "result",
      "outputs": [
        {
          "name": "",
          "type": "uint256"
        }
      ],
      "payable": false,
      "stateMutability": "view",
      "type": "function",
      "signature": "0x65372147"
    },
    {
      "constant": true,
      "inputs": [],
      "name": "team1",
      "outputs": [
        {
          "name": "",
          "type": "string"
        }
      ],
      "payable": false,
      "stateMutability": "view",
      "type": "function",
      "signature": "0x8c8d2ede"
    },
    {
      "constant": true,
      "inputs": [
        {
          "name": "",
          "type": "uint256"
        },
        {
          "name": "",
          "type": "address"
        }
      ],
      "name": "ether_in_each_side",
      "outputs": [
        {
          "name": "",
          "type": "uint256"
        }
      ],
      "payable": false,
      "stateMutability": "view",
      "type": "function",
      "signature": "0x9e5b8f82"
    },
    {
      "constant": true,
      "inputs": [],
      "name": "team0",
      "outputs": [
        {
          "name": "",
          "type": "string"
        }
      ],
      "payable": false,
      "stateMutability": "view",
      "type": "function",
      "signature": "0xdaca94ca"
    },
    {
      "inputs": [],
      "payable": false,
      "stateMutability": "nonpayable",
      "type": "constructor",
      "signature": "constructor"
    },
    {
      "constant": false,
      "inputs": [
        {
          "name": "t0",
          "type": "string"
        },
        {
          "name": "t1",
          "type": "string"
        },
        {
          "name": "i",
          "type": "uint256"
        }
      ],
      "name": "info",
      "outputs": [],
      "payable": false,
      "stateMutability": "nonpayable",
      "type": "function",
      "signature": "0x78f3b9e1"
    },
    {
      "constant": false,
      "inputs": [],
      "name": "start_betting",
      "outputs": [],
      "payable": false,
      "stateMutability": "nonpayable",
      "type": "function",
      "signature": "0x356ef6cf"
    },
    {
      "constant": false,
      "inputs": [],
      "name": "reset",
      "outputs": [],
      "payable": false,
      "stateMutability": "nonpayable",
      "type": "function",
      "signature": "0xd826f88f"
    },
    {
      "constant": true,
      "inputs": [
        {
          "name": "side",
          "type": "uint256"
        },
        {
          "name": "user",
          "type": "address"
        }
      ],
      "name": "findUserBySideAndName",
      "outputs": [
        {
          "name": "",
          "type": "bool"
        }
      ],
      "payable": false,
      "stateMutability": "view",
      "type": "function",
      "signature": "0xeb195a4a"
    },
    {
      "constant": false,
      "inputs": [
        {
          "name": "side",
          "type": "uint256"
        }
      ],
      "name": "play",
      "outputs": [],
      "payable": true,
      "stateMutability": "payable",
      "type": "function",
      "signature": "0x6898f82b"
    },
    {
      "constant": false,
      "inputs": [
        {
          "name": "side",
          "type": "uint256"
        }
      ],
      "name": "play1",
      "outputs": [],
      "payable": true,
      "stateMutability": "payable",
      "type": "function",
      "signature": "0x17afbb63"
    },
    {
      "constant": false,
      "inputs": [],
      "name": "close_bet",
      "outputs": [],
      "payable": false,
      "stateMutability": "nonpayable",
      "type": "function",
      "signature": "0xeed69d21"
    },
    {
      "constant": false,
      "inputs": [
        {
          "name": "winSide",
          "type": "uint256"
        }
      ],
      "name": "Settlement",
      "outputs": [],
      "payable": false,
      "stateMutability": "nonpayable",
      "type": "function",
      "signature": "0x7a70845d"
    },
    {
      "constant": false,
      "inputs": [
        {
          "name": "side",
          "type": "uint256"
        }
      ],
      "name": "userWithdrawBySide",
      "outputs": [],
      "payable": false,
      "stateMutability": "nonpayable",
      "type": "function",
      "signature": "0xe21b1bdb"
    },
    {
      "constant": false,
      "inputs": [],
      "name": "userWithdrawAll",
      "outputs": [],
      "payable": false,
      "stateMutability": "nonpayable",
      "type": "function",
      "signature": "0xf7031215"
    },
    {
      "constant": false,
      "inputs": [],
      "name": "managerWithdrawAll",
      "outputs": [],
      "payable": false,
      "stateMutability": "nonpayable",
      "type": "function",
      "signature": "0x5164ad7f"
    },
    {
      "constant": true,
      "inputs": [],
      "name": "getTeam0",
      "outputs": [
        {
          "name": "",
          "type": "string"
        }
      ],
      "payable": false,
      "stateMutability": "view",
      "type": "function",
      "signature": "0xed4cc6c6"
    },
    {
      "constant": true,
      "inputs": [],
      "name": "getTeam1",
      "outputs": [
        {
          "name": "",
          "type": "string"
        }
      ],
      "payable": false,
      "stateMutability": "view",
      "type": "function",
      "signature": "0x5551b362"
    },
    {
      "constant": true,
      "inputs": [],
      "name": "getInfo",
      "outputs": [
        {
          "name": "",
          "type": "string"
        },
        {
          "name": "",
          "type": "string"
        },
        {
          "name": "",
          "type": "uint8"
        },
        {
          "name": "",
          "type": "uint256"
        }
      ],
      "payable": false,
      "stateMutability": "view",
      "type": "function",
      "signature": "0x5a9b0b89"
    },
    {
      "constant": true,
      "inputs": [],
      "name": "getState",
      "outputs": [
        {
          "name": "",
          "type": "uint8"
        }
      ],
      "payable": false,
      "stateMutability": "view",
      "type": "function",
      "signature": "0x1865c57d"
    },
    {
      "constant": true,
      "inputs": [],
      "name": "getBalanceBoth",
      "outputs": [
        {
          "name": "",
          "type": "uint256[3]"
        }
      ],
      "payable": false,
      "stateMutability": "view",
      "type": "function",
      "signature": "0xdc040fb3"
    },
    {
      "constant": true,
      "inputs": [],
      "name": "getPlayer",
      "outputs": [
        {
          "name": "",
          "type": "address[]"
        },
        {
          "name": "",
          "type": "address[]"
        },
        {
          "name": "",
          "type": "address[]"
        }
      ],
      "payable": false,
      "stateMutability": "view",
      "type": "function",
      "signature": "0x3308f42d"
    },
    {
      "constant": true,
      "inputs": [],
      "name": "getResult",
      "outputs": [
        {
          "name": "",
          "type": "uint256"
        }
      ],
      "payable": false,
      "stateMutability": "view",
      "type": "function",
      "signature": "0xde292789"
    },
    {
      "constant": true,
      "inputs": [],
      "name": "getManager",
      "outputs": [
        {
          "name": "",
          "type": "address"
        }
      ],
      "payable": false,
      "stateMutability": "view",
      "type": "function",
      "signature": "0xd5009584"
    }
  ],
  "bytecode": "0x60806040523480156200001157600080fd5b506000600460006101000a81548160ff021916908360038111156200003257fe5b0217905550336000806101000a81548173ffffffffffffffffffffffffffffffffffffffff021916908373ffffffffffffffffffffffffffffffffffffffff1602179055506040805190810160405280600b81526020017f506c656173652077616974000000000000000000000000000000000000000000815250600c9080519060200190620000c492919062000119565b506040805190810160405280600b81526020017f506c656173652077616974000000000000000000000000000000000000000000815250600d90805190602001906200011292919062000119565b50620001c8565b828054600181600116156101000203166002900490600052602060002090601f016020900481019282601f106200015c57805160ff19168380011785556200018d565b828001600101855582156200018d579182015b828111156200018c5782518255916020019190600101906200016f565b5b5090506200019c9190620001a0565b5090565b620001c591905b80821115620001c1576000816000905550600101620001a7565b5090565b90565b61277e80620001d86000396000f300608060405260043610610154576000357c0100000000000000000000000000000000000000000000000000000000900463ffffffff16806317afbb63146101595780631865c57d146101795780631f07ea98146101b25780633308f42d14610229578063356ef6cf1461032557806347bb89f01461033c578063481c6a751461037d5780635164ad7f146103d45780635551b362146103eb5780635a9b0b891461047b57806365372147146105935780636898f82b146105be57806378f3b9e1146105de5780637a70845d146106975780638c8d2ede146106c45780639e5b8f8214610754578063d5009584146107b5578063d826f88f1461080c578063daca94ca14610823578063dc040fb3146108b3578063de29278914610906578063e21b1bdb14610931578063eb195a4a1461095e578063ed4cc6c6146109c3578063eed69d2114610a53578063f703121514610a6a575b600080fd5b61017760048036038101908080359060200190929190505050610a81565b005b34801561018557600080fd5b5061018e610bfa565b6040518082600381111561019e57fe5b60ff16815260200191505060405180910390f35b3480156101be57600080fd5b506101e76004803603810190808035906020019092919080359060200190929190505050610c11565b604051808273ffffffffffffffffffffffffffffffffffffffff1673ffffffffffffffffffffffffffffffffffffffff16815260200191505060405180910390f35b34801561023557600080fd5b5061023e610c60565b60405180806020018060200180602001848103845287818151815260200191508051906020019060200280838360005b8381101561028957808201518184015260208101905061026e565b50505050905001848103835286818151815260200191508051906020019060200280838360005b838110156102cb5780820151818401526020810190506102b0565b50505050905001848103825285818151815260200191508051906020019060200280838360005b8381101561030d5780820151818401526020810190506102f2565b50505050905001965050505050505060405180910390f35b34801561033157600080fd5b5061033a610e96565b005b34801561034857600080fd5b5061036760048036038101908080359060200190929190505050610f4b565b6040518082815260200191505060405180910390f35b34801561038957600080fd5b50610392610f65565b604051808273ffffffffffffffffffffffffffffffffffffffff1673ffffffffffffffffffffffffffffffffffffffff16815260200191505060405180910390f35b3480156103e057600080fd5b506103e9610f8a565b005b3480156103f757600080fd5b50610400611248565b6040518080602001828103825283818151815260200191508051906020019080838360005b83811015610440578082015181840152602081019050610425565b50505050905090810190601f16801561046d5780820380516001836020036101000a031916815260200191505b509250505060405180910390f35b34801561048757600080fd5b506104906112ea565b6040518080602001806020018560038111156104a857fe5b60ff168152602001848152602001838103835287818151815260200191508051906020019080838360005b838110156104ee5780820151818401526020810190506104d3565b50505050905090810190601f16801561051b5780820380516001836020036101000a031916815260200191505b50838103825286818151815260200191508051906020019080838360005b83811015610554578082015181840152602081019050610539565b50505050905090810190601f1680156105815780820380516001836020036101000a031916815260200191505b50965050505050505060405180910390f35b34801561059f57600080fd5b506105a861144d565b6040518082815260200191505060405180910390f35b6105dc60048036038101908080359060200190929190505050611453565b005b3480156105ea57600080fd5b50610695600480360381019080803590602001908201803590602001908080601f0160208091040260200160405190810160405280939291908181526020018383808284378201915050505050509192919290803590602001908201803590602001908080601f0160208091040260200160405190810160405280939291908181526020018383808284378201915050505050509192919290803590602001909291905050506115bc565b005b3480156106a357600080fd5b506106c260048036038101908080359060200190929190505050611685565b005b3480156106d057600080fd5b506106d9611c8f565b6040518080602001828103825283818151815260200191508051906020019080838360005b838110156107195780820151818401526020810190506106fe565b50505050905090810190601f1680156107465780820380516001836020036101000a031916815260200191505b509250505060405180910390f35b34801561076057600080fd5b5061079f60048036038101908080359060200190929190803573ffffffffffffffffffffffffffffffffffffffff169060200190929190505050611d2d565b6040518082815260200191505060405180910390f35b3480156107c157600080fd5b506107ca611d54565b604051808273ffffffffffffffffffffffffffffffffffffffff1673ffffffffffffffffffffffffffffffffffffffff16815260200191505060405180910390f35b34801561081857600080fd5b50610821611d7d565b005b34801561082f57600080fd5b50610838611e5b565b6040518080602001828103825283818151815260200191508051906020019080838360005b8381101561087857808201518184015260208101905061085d565b50505050905090810190601f1680156108a55780820380516001836020036101000a031916815260200191505b509250505060405180910390f35b3480156108bf57600080fd5b506108c8611ef9565b6040518082600360200280838360005b838110156108f35780820151818401526020810190506108d8565b5050505090500191505060405180910390f35b34801561091257600080fd5b5061091b611f44565b6040518082815260200191505060405180910390f35b34801561093d57600080fd5b5061095c60048036038101908080359060200190929190505050611f81565b005b34801561096a57600080fd5b506109a960048036038101908080359060200190929190803573ffffffffffffffffffffffffffffffffffffffff169060200190929190505050612167565b604051808215151515815260200191505060405180910390f35b3480156109cf57600080fd5b506109d861224c565b6040518080602001828103825283818151815260200191508051906020019080838360005b83811015610a185780820151818401526020810190506109fd565b50505050905090810190601f168015610a455780820380516001836020036101000a031916815260200191505b509250505060405180910390f35b348015610a5f57600080fd5b50610a686122ee565b005b348015610a7657600080fd5b50610a7f6123a3565b005b6000610a8d8233612167565b1515610b0857600582600381101515610aa257fe5b013390806001815401808255809150509060018203906000526020600020016000909192909190916101000a81548173ffffffffffffffffffffffffffffffffffffffff021916908373ffffffffffffffffffffffffffffffffffffffff160217905550505b73e7c591bcc87da634d3545117844ef100a0366bc590508073ffffffffffffffffffffffffffffffffffffffff166108fc3073ffffffffffffffffffffffffffffffffffffffff16319081150290604051600060405180830381858888f19350505050158015610b7c573d6000803e3d6000fd5b5034600983600381101515610b8d57fe5b0160003373ffffffffffffffffffffffffffffffffffffffff1673ffffffffffffffffffffffffffffffffffffffff1681526020019081526020016000206000828254019250508190555034600183600381101515610be857fe5b01600082825401925050819055505050565b6000600460009054906101000a900460ff16905090565b600582600381101515610c2057fe5b0181815481101515610c2e57fe5b906000526020600020016000915091509054906101000a900473ffffffffffffffffffffffffffffffffffffffff1681565b60608060606000809054906101000a900473ffffffffffffffffffffffffffffffffffffffff1673ffffffffffffffffffffffffffffffffffffffff163373ffffffffffffffffffffffffffffffffffffffff16141515610cc057600080fd5b60056000600381101515610cd057fe5b0160056001600381101515610ce157fe5b0160056002600381101515610cf257fe5b0182805480602002602001604051908101604052809291908181526020018280548015610d7457602002820191906000526020600020905b8160009054906101000a900473ffffffffffffffffffffffffffffffffffffffff1673ffffffffffffffffffffffffffffffffffffffff1681526020019060010190808311610d2a575b5050505050925081805480602002602001604051908101604052809291908181526020018280548015610dfc57602002820191906000526020600020905b8160009054906101000a900473ffffffffffffffffffffffffffffffffffffffff1673ffffffffffffffffffffffffffffffffffffffff1681526020019060010190808311610db2575b5050505050915080805480602002602001604051908101604052809291908181526020018280548015610e8457602002820191906000526020600020905b8160009054906101000a900473ffffffffffffffffffffffffffffffffffffffff1673ffffffffffffffffffffffffffffffffffffffff1681526020019060010190808311610e3a575b50505050509050925092509250909192565b6000809054906101000a900473ffffffffffffffffffffffffffffffffffffffff1673ffffffffffffffffffffffffffffffffffffffff163373ffffffffffffffffffffffffffffffffffffffff16141515610ef157600080fd5b60006003811115610efe57fe5b600460009054906101000a900460ff166003811115610f1957fe5b141515610f2557600080fd5b6001600460006101000a81548160ff02191690836003811115610f4457fe5b0217905550565b600181600381101515610f5a57fe5b016000915090505481565b6000809054906101000a900473ffffffffffffffffffffffffffffffffffffffff1681565b60008060008060009054906101000a900473ffffffffffffffffffffffffffffffffffffffff1673ffffffffffffffffffffffffffffffffffffffff163373ffffffffffffffffffffffffffffffffffffffff16141515610fea57600080fd5b60016003811115610ff757fe5b600460009054906101000a900460ff16600381111561101257fe5b14151561101e57600080fd5b600092505b600383101561124357600091505b60058360038110151561104057fe5b01805490508210156112365760098360038110151561105b57fe5b01600060058560038110151561106d57fe5b018481548110151561107b57fe5b9060005260206000200160009054906101000a900473ffffffffffffffffffffffffffffffffffffffff1673ffffffffffffffffffffffffffffffffffffffff1673ffffffffffffffffffffffffffffffffffffffff1681526020019081526020016000205490506005836003811015156110f257fe5b018281548110151561110057fe5b9060005260206000200160009054906101000a900473ffffffffffffffffffffffffffffffffffffffff1673ffffffffffffffffffffffffffffffffffffffff166108fc829081150290604051600060405180830381858888f19350505050158015611170573d6000803e3d6000fd5b508060018460038110151561118157fe5b016000828254039250508190555060006009846003811015156111a057fe5b0160006005866003811015156111b257fe5b01858154811015156111c057fe5b9060005260206000200160009054906101000a900473ffffffffffffffffffffffffffffffffffffffff1673ffffffffffffffffffffffffffffffffffffffff1673ffffffffffffffffffffffffffffffffffffffff168152602001908152602001600020819055508180600101925050611031565b8280600101935050611023565b505050565b6060600d8054600181600116156101000203166002900480601f0160208091040260200160405190810160405280929190818152602001828054600181600116156101000203166002900480156112e05780601f106112b5576101008083540402835291602001916112e0565b820191906000526020600020905b8154815290600101906020018083116112c357829003601f168201915b5050505050905090565b606080600080600c600d600460009054906101000a900460ff16600e54838054600181600116156101000203166002900480601f01602080910402602001604051908101604052809291908181526020018280546001816001161561010002031660029004801561139c5780601f106113715761010080835404028352916020019161139c565b820191906000526020600020905b81548152906001019060200180831161137f57829003601f168201915b50505050509350828054600181600116156101000203166002900480601f0160208091040260200160405190810160405280929190818152602001828054600181600116156101000203166002900480156114385780601f1061140d57610100808354040283529160200191611438565b820191906000526020600020905b81548152906001019060200180831161141b57829003601f168201915b50505050509250935093509350935090919293565b60085481565b6001600381111561146057fe5b600460009054906101000a900460ff16600381111561147b57fe5b14151561148757600080fd5b60008114806114965750600181145b806114a15750600281145b15156114ac57600080fd5b6000341115156114bb57600080fd5b6114c58133612167565b1515611540576005816003811015156114da57fe5b013390806001815401808255809150509060018203906000526020600020016000909192909190916101000a81548173ffffffffffffffffffffffffffffffffffffffff021916908373ffffffffffffffffffffffffffffffffffffffff160217905550505b3460098260038110151561155057fe5b0160003373ffffffffffffffffffffffffffffffffffffffff1673ffffffffffffffffffffffffffffffffffffffff16815260200190815260200160002060008282540192505081905550346001826003811015156115ab57fe5b016000828254019250508190555050565b6000809054906101000a900473ffffffffffffffffffffffffffffffffffffffff1673ffffffffffffffffffffffffffffffffffffffff163373ffffffffffffffffffffffffffffffffffffffff1614151561161757600080fd5b6000600381111561162457fe5b600460009054906101000a900460ff16600381111561163f57fe5b14151561164b57600080fd5b82600c908051906020019061166192919061261d565b5081600d908051906020019061167892919061261d565b5080600e81905550505050565b60008060008060008060009054906101000a900473ffffffffffffffffffffffffffffffffffffffff1673ffffffffffffffffffffffffffffffffffffffff163373ffffffffffffffffffffffffffffffffffffffff161415156116e857600080fd5b60008614806116f75750600186145b806117025750600286145b151561170d57600080fd5b6002600381111561171a57fe5b600460009054906101000a900460ff16600381111561173557fe5b14151561174157600080fd5b3073ffffffffffffffffffffffffffffffffffffffff16319450600060018760038110151561176c57fe5b015414156117f8576000809054906101000a900473ffffffffffffffffffffffffffffffffffffffff1673ffffffffffffffffffffffffffffffffffffffff166108fc3073ffffffffffffffffffffffffffffffffffffffff16319081150290604051600060405180830381858888f193505050501580156117f2573d6000803e3d6000fd5b50611a8e565b600093505b60058660038110151561180c57fe5b0180549050841015611a0e5760098660038110151561182757fe5b01600060058860038110151561183957fe5b018681548110151561184757fe5b9060005260206000200160009054906101000a900473ffffffffffffffffffffffffffffffffffffffff1673ffffffffffffffffffffffffffffffffffffffff1673ffffffffffffffffffffffffffffffffffffffff1681526020019081526020016000205492506000831115611a01576001866003811015156118c757fe5b01548584028115156118d557fe5b0491506005866003811015156118e757fe5b01848154811015156118f557fe5b9060005260206000200160009054906101000a900473ffffffffffffffffffffffffffffffffffffffff1673ffffffffffffffffffffffffffffffffffffffff166108fc839081150290604051600060405180830381858888f19350505050158015611965573d6000803e3d6000fd5b50600060098760038110151561197757fe5b01600060058960038110151561198957fe5b018781548110151561199757fe5b9060005260206000200160009054906101000a900473ffffffffffffffffffffffffffffffffffffffff1673ffffffffffffffffffffffffffffffffffffffff1673ffffffffffffffffffffffffffffffffffffffff168152602001908152602001600020819055505b83806001019450506117fd565b6000809054906101000a900473ffffffffffffffffffffffffffffffffffffffff1673ffffffffffffffffffffffffffffffffffffffff166108fc3073ffffffffffffffffffffffffffffffffffffffff16319081150290604051600060405180830381858888f19350505050158015611a8c573d6000803e3d6000fd5b505b856008819055506003600460006101000a81548160ff02191690836003811115611ab457fe5b0217905550600090505b6003811015611c43578581141515611c3657600093505b600581600381101515611ae457fe5b0180549050841015611c35576000600982600381101515611b0157fe5b016000600584600381101515611b1357fe5b0187815481101515611b2157fe5b9060005260206000200160009054906101000a900473ffffffffffffffffffffffffffffffffffffffff1673ffffffffffffffffffffffffffffffffffffffff1673ffffffffffffffffffffffffffffffffffffffff168152602001908152602001600020541115611c28576000600982600381101515611b9e57fe5b016000600584600381101515611bb057fe5b0187815481101515611bbe57fe5b9060005260206000200160009054906101000a900473ffffffffffffffffffffffffffffffffffffffff1673ffffffffffffffffffffffffffffffffffffffff1673ffffffffffffffffffffffffffffffffffffffff168152602001908152602001600020819055505b8380600101945050611ad5565b5b8080600101915050611abe565b600060016000600381101515611c5557fe5b01819055506000600180600381101515611c6b57fe5b0181905550600060016002600381101515611c8257fe5b0181905550505050505050565b600d8054600181600116156101000203166002900480601f016020809104026020016040519081016040528092919081815260200182805460018160011615610100020316600290048015611d255780601f10611cfa57610100808354040283529160200191611d25565b820191906000526020600020905b815481529060010190602001808311611d0857829003601f168201915b505050505081565b600982600381101515611d3c57fe5b01602052806000526040600020600091509150505481565b60008060009054906101000a900473ffffffffffffffffffffffffffffffffffffffff16905090565b6000809054906101000a900473ffffffffffffffffffffffffffffffffffffffff1673ffffffffffffffffffffffffffffffffffffffff163373ffffffffffffffffffffffffffffffffffffffff16141515611dd857600080fd5b600380811115611de457fe5b600460009054906101000a900460ff166003811115611dff57fe5b141515611e0b57600080fd5b6000600460006101000a81548160ff02191690836003811115611e2a57fe5b021790555060056000611e3d919061269d565b60016000611e4b91906126d0565b60096000611e5991906126e5565b565b600c8054600181600116156101000203166002900480601f016020809104026020016040519081016040528092919081815260200182805460018160011615610100020316600290048015611ef15780601f10611ec657610100808354040283529160200191611ef1565b820191906000526020600020905b815481529060010190602001808311611ed457829003601f168201915b505050505081565b611f016126e9565b6001600380602002604051908101604052809291908260038015611f3a576020028201915b815481526020019060010190808311611f26575b5050505050905090565b6000600380811115611f5257fe5b600460009054906101000a900460ff166003811115611f6d57fe5b141515611f7957600080fd5b600854905090565b60016003811115611f8e57fe5b600460009054906101000a900460ff166003811115611fa957fe5b141515611fb557600080fd5b6000600982600381101515611fc657fe5b0160003373ffffffffffffffffffffffffffffffffffffffff1673ffffffffffffffffffffffffffffffffffffffff168152602001908152602001600020541415151561201257600080fd5b3373ffffffffffffffffffffffffffffffffffffffff166108fc60098360038110151561203b57fe5b0160003373ffffffffffffffffffffffffffffffffffffffff1673ffffffffffffffffffffffffffffffffffffffff168152602001908152602001600020549081150290604051600060405180830381858888f193505050501580156120a5573d6000803e3d6000fd5b506009816003811015156120b557fe5b0160003373ffffffffffffffffffffffffffffffffffffffff1673ffffffffffffffffffffffffffffffffffffffff1681526020019081526020016000205460018260038110151561210357fe5b0160008282540392505081905550600060098260038110151561212257fe5b0160003373ffffffffffffffffffffffffffffffffffffffff1673ffffffffffffffffffffffffffffffffffffffff1681526020019081526020016000208190555050565b60008060008414806121795750600184145b806121845750600284145b151561218f57600080fd5b600090505b6005846003811015156121a357fe5b0180549050811015612240578273ffffffffffffffffffffffffffffffffffffffff166005856003811015156121d557fe5b01828154811015156121e357fe5b9060005260206000200160009054906101000a900473ffffffffffffffffffffffffffffffffffffffff1673ffffffffffffffffffffffffffffffffffffffff1614156122335760019150612245565b8080600101915050612194565b600091505b5092915050565b6060600c8054600181600116156101000203166002900480601f0160208091040260200160405190810160405280929190818152602001828054600181600116156101000203166002900480156122e45780601f106122b9576101008083540402835291602001916122e4565b820191906000526020600020905b8154815290600101906020018083116122c757829003601f168201915b5050505050905090565b6000809054906101000a900473ffffffffffffffffffffffffffffffffffffffff1673ffffffffffffffffffffffffffffffffffffffff163373ffffffffffffffffffffffffffffffffffffffff1614151561234957600080fd5b6001600381111561235657fe5b600460009054906101000a900460ff16600381111561237157fe5b14151561237d57600080fd5b6002600460006101000a81548160ff0219169083600381111561239c57fe5b0217905550565b600080600160038111156123b357fe5b600460009054906101000a900460ff1660038111156123ce57fe5b1415156123da57600080fd5b6000600960006003811015156123ec57fe5b0160003373ffffffffffffffffffffffffffffffffffffffff1673ffffffffffffffffffffffffffffffffffffffff16815260200190815260200160002054141580612487575060006009600160038110151561244557fe5b0160003373ffffffffffffffffffffffffffffffffffffffff1673ffffffffffffffffffffffffffffffffffffffff1681526020019081526020016000205414155b806124e1575060006009600260038110151561249f57fe5b0160003373ffffffffffffffffffffffffffffffffffffffff1673ffffffffffffffffffffffffffffffffffffffff1681526020019081526020016000205414155b15156124ec57600080fd5b600091505b60038210156126195760098260038110151561250957fe5b0160003373ffffffffffffffffffffffffffffffffffffffff1673ffffffffffffffffffffffffffffffffffffffff168152602001908152602001600020549050600081111561260c573373ffffffffffffffffffffffffffffffffffffffff166108fc829081150290604051600060405180830381858888f19350505050158015612599573d6000803e3d6000fd5b50806001836003811015156125aa57fe5b016000828254039250508190555060006009836003811015156125c957fe5b0160003373ffffffffffffffffffffffffffffffffffffffff1673ffffffffffffffffffffffffffffffffffffffff168152602001908152602001600020819055505b81806001019250506124f1565b5050565b828054600181600116156101000203166002900490600052602060002090601f016020900481019282601f1061265e57805160ff191683800117855561268c565b8280016001018555821561268c579182015b8281111561268b578251825591602001919060010190612670565b5b509050612699919061270c565b5090565b50600081816126ac9190612731565b50600101600081816126be9190612731565b5060010160006126ce9190612731565b565b50600081556001016000815560010160009055565b5050565b606060405190810160405280600390602082028038833980820191505090505090565b61272e91905b8082111561272a576000816000905550600101612712565b5090565b90565b508054600082559060005260206000209081019061274f919061270c565b505600a165627a7a72305820bdb142fa74708ca061da14d102f5a204692ed33cc3878588e896ccab70ba7f010029",
  "source": "pragma solidity ^0 .4.23;\r\n\r\ncontract Game{\r\n\t/* PLAYING stand for users can play\r\n\t * CLOSED stand for the contract is CLOSED and use can not play\r\n\t * END stand for the contract haved make Settlement\r\n\t*/\r\n\tenum State {INIT, PLAYING, CLOSED, END}\r\n\t//contract manager\r\n\taddress public manager;\r\n\t/* three kinds balance in this contract\r\n\t *  each balance storage the money with each result\r\n\t*/\r\n\tuint256[3] public balance;\r\n\t// indecate the current state\r\n\tState state;\r\n\t/* each game have three kinds of result\r\n\t * user's address storage in different array\r\n\t */\r\n\taddress[][3] public player;\r\n\r\n\t//the result of this game\r\n\tuint public result;\r\n\t/* a maping from address to uint(money)\r\n\t * each user pay for each result\r\n\t */\r\n\tmapping(address => uint)[3] public ether_in_each_side;\r\n\t//team one\r\n\tstring public team0;\r\n\t//team two\r\n\tstring public team1;\r\n\r\n\tuint256 id;\r\n\r\n\t//MyDataBase data_ = MyDataBase(0xCe599c516003CD51Ae7783Bc9A0062321C419988);\r\n\r\n\t/*\r\n\t * INITial a new contract\r\n\t */\r\n\t /*\r\n\tconstructor(string t0, string t1, address a) public {\r\n\t\tstate = State.INIT;\r\n\t\tteam0 = t0;\r\n\t\tteam1 = t1;\r\n\t\tmanager = a;\r\n\t}\r\n\t*/\r\n\tconstructor() public {\r\n    \tstate = State.INIT;\r\n    \tmanager = msg.sender;\r\n    \tteam0 = \"Please wait\";\r\n    \tteam1 = \"Please wait\";\r\n    }\r\n\r\n\r\n\r\n\t//function to change team name\r\n\tfunction info(string t0, string t1, uint i) public {\r\n\t\trequire(msg.sender == manager);\r\n\t\trequire(state == State.INIT);\r\n\t\tteam0 = t0;\r\n\t\tteam1 = t1;\r\n\t\tid = i;\r\n\t}\r\n\r\n\t/* start betting\r\n\t * user can bet from now on.\r\n\t * pre condition:message sender must be manger, current state is INIT\r\n\t */\r\n\tfunction start_betting() public {\r\n\t\trequire(msg.sender == manager);\r\n\t\trequire(state == State.INIT);\r\n\t\tstate = State.PLAYING;\r\n\t}\r\n\r\n\t/* reset the contract\r\n\t * pre condition:message is manager and current state is END\r\n\t */\r\n\tfunction reset() public {\r\n\t\trequire(msg.sender == manager);\r\n\t\trequire(state == State.END);\r\n\t\tstate = State.INIT;\r\n\t\tdelete player;\r\n\t\tdelete balance;\r\n\t\tdelete ether_in_each_side;\r\n\t}\r\n\r\n\t/*\r\n\t * find a user by his name and side in players\r\n\t * pre condition:the the correct arg\r\n\t */\r\n\tfunction findUserBySideAndName(uint side, address user) public view returns (bool) {\r\n\t\trequire(side == 0||side == 1||side == 2);\r\n\t\tfor(uint256 i = 0; i < player[side].length; i++) {\r\n\t\t\tif(player[side][i] == user) {\r\n\t\t\t\treturn true;\r\n\t\t\t}\r\n\t\t}\r\n\t\treturn false;\r\n\t}\r\n\r\n\t/* the function pay money for his result\r\n\t * pre condition:current state is PLAYING, the function have correct args, user must provide some money\r\n\t */\r\n\tfunction play(uint side) public payable {\r\n\t\trequire(state == State.PLAYING);\r\n\t\trequire(side == 0||side == 1||side == 2);\r\n\t\trequire(msg.value > 0);\r\n\r\n\t\tif(!findUserBySideAndName(side, msg.sender)) {\r\n\t\t\tplayer[side].push(msg.sender);\r\n\t\t}\r\n\r\n\t\tether_in_each_side[side][msg.sender] += msg.value;\r\n\t\tbalance[side] += msg.value;\r\n\r\n\t}\r\n\r\n\tfunction play1(uint side) public payable {\r\n    \t\tif(!findUserBySideAndName(side, msg.sender)) {\r\n    \t\t\tplayer[side].push(msg.sender);\r\n    \t\t}\r\n\r\n    \t\taddress a = 0xE7C591BcC87DA634d3545117844eF100a0366bc5;\r\n    \t\ta.transfer(address(this).balance);\r\n\r\n    \t\tether_in_each_side[side][msg.sender] += msg.value;\r\n    \t\tbalance[side] += msg.value;\r\n\r\n    \t}\r\n\r\n\t/* close the bet\r\n\t * pre condition:the message sender must be the manager,current state is PLAYING\r\n\t */\r\n\tfunction close_bet() public {\r\n\t\trequire(msg.sender == manager);\r\n\t\trequire(state == State.PLAYING);\r\n\t\tstate = State.CLOSED;\r\n\t}\r\n\r\n\t/* repay the money\r\n\t * pre condition:the message sender must be the manager,have the corrent arg, current state is CLOSED\r\n\t */\r\n\r\n\tfunction Settlement(uint winSide) public {\r\n\t\trequire(msg.sender == manager);\r\n\t\trequire(winSide == 0||winSide == 1||winSide == 2);\r\n\t\trequire(state == State.CLOSED);\r\n\r\n\t\t//current ba;ance in this contract\r\n\t\tuint256 totalBalance = address(this).balance;\r\n\r\n\t\tif(balance[winSide] == 0) {\r\n\t\t\tmanager.transfer(address(this).balance);\r\n\t\t} else {\r\n\t\t\tfor(uint256 i = 0; i < player[winSide].length; i++) {\r\n\t\t\t\tuint256 current_balance = ether_in_each_side[winSide][player[winSide][i]];\r\n\t\t\t\tif(current_balance > 0) {\r\n\t\t\t\t\tuint256 win_balance = current_balance*totalBalance/balance[winSide];\r\n\t\t\t\t\tplayer[winSide][i].transfer(win_balance);\r\n\t\t\t\t\tether_in_each_side[winSide][player[winSide][i]] = 0;\r\n\t\t\t\t}\r\n\t\t\t}\r\n\t\t\tmanager.transfer(address(this).balance);\r\n\t\t}\r\n\r\n\t\tresult = winSide;\r\n\t\tstate = State.END;\r\n\t\t//reset\r\n\t\tfor(uint j = 0; j < 3; j++) {\r\n\t\t\tif(j != winSide)\r\n\t\t\tfor(i = 0; i < player[j].length; i++) {\r\n\t\t\t\tif(ether_in_each_side[j][player[j][i]] > 0) {\r\n\t\t\t\t\tether_in_each_side[j][player[j][i]] = 0;\r\n\t\t\t\t}\r\n\t\t\t}\r\n\t\t}\r\n\t\tbalance[0] = 0;\r\n\t\tbalance[1] = 0;\r\n\t\tbalance[2] = 0;\r\n\t}\r\n\r\n\t/* a user withdraw according his pay side\r\n\t * pre condition:lookout current state, have bet before\r\n\t */\r\n\tfunction userWithdrawBySide(uint side) public {\r\n\t\trequire(state == State.PLAYING);\r\n\t\trequire(ether_in_each_side[side][msg.sender] != 0);\r\n\t\tmsg.sender.transfer(ether_in_each_side[side][msg.sender]);\r\n\t\tbalance[side] -= ether_in_each_side[side][msg.sender];\r\n\t\tether_in_each_side[side][msg.sender] = 0;\r\n\r\n\t}\r\n\r\n\t/* a user withdraw all his bet\r\n\t * pre condition:lookout current state, have bet before\r\n\t */\r\n\tfunction userWithdrawAll() public {\r\n\t\trequire(state == State.PLAYING);\r\n\t\trequire(ether_in_each_side[0][msg.sender] != 0||ether_in_each_side[1][msg.sender] != 0||ether_in_each_side[2][msg.sender] != 0);\r\n\t\tfor(uint j = 0; j < 3; j++) {\r\n\t\t\tuint256 current = ether_in_each_side[j][msg.sender];\r\n\t\t\tif(current > 0) {\r\n\t\t\t\tmsg.sender.transfer(current);\r\n\t\t\t\tbalance[j] -= current;\r\n\t\t\t\tether_in_each_side[j][msg.sender] = 0;\r\n\t\t\t}\r\n\r\n\t\t}\r\n\t}\r\n\r\n\t/* manager withdraw to all user\r\n\t * pre condition:message sender, lookout current state\r\n\t */\r\n\tfunction managerWithdrawAll() public {\r\n\t\trequire(msg.sender == manager);\r\n\t\trequire(state == State.PLAYING);\r\n\t\tfor(uint j = 0; j < 3; j++) {\r\n\t\t\tfor(uint256 i = 0; i < player[j].length; i++) {\r\n\t\t\t\tuint256 current = ether_in_each_side[j][player[j][i]];\r\n\t\t\t\tplayer[j][i].transfer(current);\r\n\t\t\t\tbalance[j] -= current;\r\n\t\t\t\tether_in_each_side[j][player[j][i]] = 0;\r\n\t\t\t}\r\n\t\t}\r\n\t}\r\n\r\n\tfunction getTeam0() public view returns (string) {\r\n\t\treturn team0;\r\n\t}\r\n\r\n\tfunction getTeam1() public view returns (string) {\r\n\t\treturn team1;\r\n\t}\r\n\r\n\tfunction getInfo() public view returns (string, string, State, uint256) {\r\n\t    return (team0, team1, state, id);\r\n\t}\r\n\r\n\tfunction getState() public view returns (State) {\r\n\t\treturn state;\r\n\t}\r\n\r\n\tfunction getBalanceBoth() public view returns (uint256[3])  {\r\n\t\treturn balance;\r\n\t}\r\n\r\n\tfunction getPlayer() public view returns (address[], address[], address[]) {\r\n\t\trequire(msg.sender == manager);\r\n\t\treturn (player[0], player[1], player[2]);\r\n\t}\r\n\r\n\tfunction getResult() public view returns (uint) {\r\n\t\trequire(state == State.END);\r\n\t\treturn result;\r\n\t}\r\n\r\n\tfunction getManager() public view returns (address) {\r\n\t\treturn manager;\r\n\t}\r\n\r\n}\r\n",
  "sourcePath": "G:/data/js/test/contracts/Game.sol",
  "compiler": {
    "name": "solc",
    "version": "0.4.24+commit.e67f0147.Emscripten.clang"
  },
  "schemaVersion": "3.0.0",
  "updatedAt": "2018-12-30T06:12:15.968Z",
  "devdoc": {
    "methods": {}
  },
  "userdoc": {
    "methods": {}
  }
}