{
  "contractName": "MyDataBase",
  "abi": [
    {
      "constant": true,
      "inputs": [
        {
          "name": "",
          "type": "uint256"
        }
      ],
      "name": "result",
      "outputs": [
        {
          "name": "",
          "type": "string"
        }
      ],
      "payable": false,
      "stateMutability": "view",
      "type": "function",
      "signature": "0x3c594059"
    },
    {
      "inputs": [
        {
          "name": "a",
          "type": "address"
        }
      ],
      "payable": false,
      "stateMutability": "nonpayable",
      "type": "constructor",
      "signature": "constructor"
    },
    {
      "constant": false,
      "inputs": [
        {
          "name": "i",
          "type": "uint256"
        },
        {
          "name": "t0",
          "type": "string"
        }
      ],
      "name": "addResult",
      "outputs": [],
      "payable": false,
      "stateMutability": "nonpayable",
      "type": "function",
      "signature": "0x79f8eec2"
    },
    {
      "constant": false,
      "inputs": [
        {
          "name": "i",
          "type": "uint256"
        },
        {
          "name": "t0",
          "type": "string"
        }
      ],
      "name": "changeResult",
      "outputs": [],
      "payable": false,
      "stateMutability": "nonpayable",
      "type": "function",
      "signature": "0x6af6e038"
    },
    {
      "constant": true,
      "inputs": [
        {
          "name": "a",
          "type": "uint256"
        }
      ],
      "name": "queryResult",
      "outputs": [
        {
          "name": "",
          "type": "string"
        }
      ],
      "payable": false,
      "stateMutability": "view",
      "type": "function",
      "signature": "0x82eec13f"
    },
    {
      "constant": true,
      "inputs": [],
      "name": "getManager",
      "outputs": [
        {
          "name": "",
          "type": "address"
        }
      ],
      "payable": false,
      "stateMutability": "view",
      "type": "function",
      "signature": "0xd5009584"
    }
  ],
  "bytecode": "0x608060405234801561001057600080fd5b506040516020806106eb83398101806040528101908080519060200190929190505050806000806101000a81548173ffffffffffffffffffffffffffffffffffffffff021916908373ffffffffffffffffffffffffffffffffffffffff16021790555050610668806100836000396000f30060806040526004361061006d576000357c0100000000000000000000000000000000000000000000000000000000900463ffffffff1680633c594059146100725780636af6e0381461011857806379f8eec21461018b57806382eec13f146101fe578063d5009584146102a4575b600080fd5b34801561007e57600080fd5b5061009d600480360381019080803590602001909291905050506102fb565b6040518080602001828103825283818151815260200191508051906020019080838360005b838110156100dd5780820151818401526020810190506100c2565b50505050905090810190601f16801561010a5780820380516001836020036101000a031916815260200191505b509250505060405180910390f35b34801561012457600080fd5b5061018960048036038101908080359060200190929190803590602001908201803590602001908080601f01602080910402602001604051908101604052809392919081815260200183838082843782019150505050505091929192905050506103ab565b005b34801561019757600080fd5b506101fc60048036038101908080359060200190929190803590602001908201803590602001908080601f0160208091040260200160405190810160405280939291908181526020018383808284378201915050505050509192919290505050610432565b005b34801561020a57600080fd5b50610229600480360381019080803590602001909291905050506104b9565b6040518080602001828103825283818151815260200191508051906020019080838360005b8381101561026957808201518184015260208101905061024e565b50505050905090810190601f1680156102965780820380516001836020036101000a031916815260200191505b509250505060405180910390f35b3480156102b057600080fd5b506102b961056e565b604051808273ffffffffffffffffffffffffffffffffffffffff1673ffffffffffffffffffffffffffffffffffffffff16815260200191505060405180910390f35b60016020528060005260406000206000915090508054600181600116156101000203166002900480601f0160208091040260200160405190810160405280929190818152602001828054600181600116156101000203166002900480156103a35780601f10610378576101008083540402835291602001916103a3565b820191906000526020600020905b81548152906001019060200180831161038657829003601f168201915b505050505081565b6000809054906101000a900473ffffffffffffffffffffffffffffffffffffffff1673ffffffffffffffffffffffffffffffffffffffff163373ffffffffffffffffffffffffffffffffffffffff1614151561040657600080fd5b8060016000848152602001908152602001600020908051906020019061042d929190610597565b505050565b6000809054906101000a900473ffffffffffffffffffffffffffffffffffffffff1673ffffffffffffffffffffffffffffffffffffffff163373ffffffffffffffffffffffffffffffffffffffff1614151561048d57600080fd5b806001600084815260200190815260200160002090805190602001906104b4929190610597565b505050565b6060600160008381526020019081526020016000208054600181600116156101000203166002900480601f0160208091040260200160405190810160405280929190818152602001828054600181600116156101000203166002900480156105625780601f1061053757610100808354040283529160200191610562565b820191906000526020600020905b81548152906001019060200180831161054557829003601f168201915b50505050509050919050565b60008060009054906101000a900473ffffffffffffffffffffffffffffffffffffffff16905090565b828054600181600116156101000203166002900490600052602060002090601f016020900481019282601f106105d857805160ff1916838001178555610606565b82800160010185558215610606579182015b828111156106055782518255916020019190600101906105ea565b5b5090506106139190610617565b5090565b61063991905b8082111561063557600081600090555060010161061d565b5090565b905600a165627a7a723058207f60ad6682d72eb6968ca688c8530664a59ca2d3f8ca8f08aec1ca598215bddd0029",
  "source": "pragma solidity ^0 .4.23;\r\n/*\r\n * database to storage result\r\n * 1->0, 2->1, 3->2\r\n * only manger can add data to database\r\n*/\r\ncontract MyDataBase{\r\n\taddress manager;\r\n\t//each game is a contarct, using its' address to find its' result\r\n\tmapping(uint256 => string) public result;\r\n\r\n\tconstructor(address a) public {\r\n\t\tmanager = a;\r\n\t}\r\n\r\n\t//function to storage result\r\n\tfunction addResult(uint256 i, string t0) public {\r\n\t\trequire(msg.sender == manager);\r\n\t\tresult[i] = t0;\r\n\t}\r\n\r\n\t//function to change result\r\n\tfunction changeResult(uint256 i, string t0) public {\r\n\t\trequire(msg.sender == manager);\r\n\t\tresult[i] = t0;\r\n\t}\r\n\r\n\t//function to query a game's result\r\n\tfunction queryResult(uint256 a) public view returns (string) {\r\n\t\treturn result[a];\r\n\t}\r\n\r\n\tfunction getManager() public view returns (address) {\r\n\t\treturn manager;\r\n\t}\r\n}",
  "sourcePath": "G:/data/js/blockchainQuiz/blockchainQuiz/contracts/MyDataBase.sol",
  "compiler": {
    "name": "solc",
    "version": "0.4.24+commit.e67f0147.Emscripten.clang"
  },
  "schemaVersion": "3.0.0",
  "updatedAt": "2018-12-30T07:55:03.649Z",
  "devdoc": {
    "methods": {}
  },
  "userdoc": {
    "methods": {}
  }
}